:020000040800F2
:10000000B01D002001010008A9010008AB01000893
:10001000AF010008B3010008B701000800000000AC
:10002000000000000000000000000000BB0100080C
:10003000BD01000800000000BF010008C101000868
:100040001B0100081B0100081B0100081B01000820
:100050001B0100081B0100081B0100081B01000810
:100060001B0100081B0100081B0100081B01000800
:100070001B0100081B0100081B0100081B010008F0
:100080001B0100081B0100081B0100081B010008E0
:100090001B0100081B0100081B0100081B010008D0
:1000A0001B0100081B0100081B0100081B010008C0
:1000B0001B010008212700081B0100081B01000884
:1000C0001B0100081B0100081B0100081B010008A0
:1000D0001B010008412200082F2400081B01000812
:1000E0001B0100081B0100081B010008DFF80CD0F1
:1000F00003F010F80048004725010008B01D00205B
:100100000648804706480047FEE7FEE7FEE7FEE7B1
:10011000FEE7FEE7FEE7FEE7FEE7FEE7431E000818
:10012000ED0000084FF4A06000F04CF801F0C8FFAB
:1001300002F02CF902F0D2F902F0C4FA02F0AEFBA0
:1001400023E002F0F8FB4FF07E511048006802F007
:100150005BFC044602F05EFE0D4908600D490E4846
:10016000006802F051FC044602F054FE0B4908609E
:1001700000220B4B10460B4902F03CFA044602F0F9
:1001800011FA02F081F902F0D9F8DAE7480000200C
:10019000000000200000C842580000200400002099
:1001A0000000214000801040704700BFFEE700BF04
:1001B000FEE700BFFEE700BFFEE7704770477047ED
:1001C0007047000031490143314A1160704770B5F2
:1001D000002100230F22C47804B32D4C246804F4BA
:1001E000E064C4F5E064210AC1F10403CA40447824
:1001F00004FA03F18478144021430901254C067860
:10020000A155047804F01F050124AC4005786D1158
:10021000AD0005F1E025C5F8004109E0047804F0DF
:100220001F050124AC401C4D0678761145F8264088
:1002300070BD1A4A0A400243154B1B1F1A607047D3
:1002400039B1134A121D12680243114B1B1D1A606B
:1002500006E00F4A121D126882430D4B1B1D1A60E7
:100260007047042808D14FF0E021096941F00401EA
:100270004FF0E022116107E04FF0E021096921F021
:1002800004014FF0E0221161704700000000FA0500
:100290000CED00E000E400E080E100E080FFFF1FE3
:1002A00010B50121480700F004FC00214FF0005078
:1002B00000F0FFFB10BD30B5002200235A4C22682D
:1002C00040F6FE748440A243D1E900452C438D687A
:1002D0002C43CD6844EA050303FA00F42243524C50
:1002E000226030BD0021016041608160C1607047C3
:1002F00039B14D4A1268012383401A434A4B1A60B0
:1003000006E0494A1268012383409A43464B1A602B
:10031000704741B1444A12684FF4805383401A43F6
:10032000414B1A6007E0404A12684FF48053834003
:100330009A433D4B1A60704710B551B13A4A121DAD
:10034000126804090123A3401A43374B1B1D1A608E
:1003500009E0354A121D126804090123A3409A439B
:10036000314B1B1D1A6010BD40B12F49091D096892
:1003700041F003012C4A121D116007E02A49091DB2
:10038000096821F00301284A121D1160704710B559
:100390003AB1254B1B6801FA00F42343224C236039
:1003A00006E0214B1B6801FA00F4A3431E4C2360B6
:1003B00010BD08B5002200921B4A009200F108020D
:1003C000009B1A440092009A116008BD08B50022F3
:1003D0000092154A009200F11402009B1A44009208
:1003E000009A116008BD30B500240023082802D10E
:1003F00042EA012401E042EA01440B4B00F12005EE
:100400002B441C6030BD08B5014600200090064812
:1004100000902C2000EB9100009A1044009000986E
:10042000006880B208BD00000074004010B50446AA
:10043000CC48844208D10121042000F02DFB00218A
:10044000042000F029FB46E0C748844208D101217E
:10045000082000F021FB0021082000F01DFB3AE0FD
:10046000C248844208D10121102000F015FB002170
:10047000102000F011FB2EE0BD48844208D101217C
:10048000202000F009FB0021202000F005FB22E0E5
:10049000B848844208D10121402000F0FDFA002133
:1004A000402000F0F9FA16E0B348844208D1012157
:1004B000802000F0F1FA0021802000F0EDFA0AE03F
:1004C000AE48844207D10121801500F0E5FA0021F1
:1004D000A01500F0E1FA10BD10B50121084600F0AA
:1004E000DBFA0021012000F0D7FA10BD2DE9F04120
:1004F000024600250026002000230024002791F852
:1005000003C00CF00F0591F803C00CF0100CBCF107
:10051000000F03D091F802C04CEA050591F800C025
:10052000BCF1000F31D0146800202BE04FF0010C1B
:100530000CFA00F3B1F800C00CEA03069E4220D189
:1005400083004FF00F0C0CFA03F7BC4305FA03FCD1
:100550004CEA040491F803C0BCF1280F06D14FF017
:10056000010C0CFA00FCC2F814C00AE091F803C0B8
:10057000BCF1480F05D14FF0010C0CFA00FCC2F899
:1005800010C0401C0828D1D31460B1F800C0BCF1E1
:10059000FF0F34DD546800202EE000F1080C4FF00E
:1005A000010808FA0CF3B1F800C00CEA03069E42F9
:1005B00021D183004FF00F0C0CFA03F7BC4305FA6E
:1005C00003FC4CEA040491F803C0BCF1280F05D1E8
:1005D00000F1080C08FA0CF8C2F8148091F803C076
:1005E000BCF1480F07D100F1080C4FF0010808FAE0
:1005F0000CF8C2F81080401C0828CED35460BDE827
:10060000F0814FF6FF710180022181700421C170D9
:1006100070470246002093680B400BB1012000E0B8
:10062000002070470146886880B27047024600206B
:10063000D3680B400BB1012000E000207047014659
:10064000C86880B2704701617047416170470AB164
:10065000016100E041617047C16070474FF4803232
:100660000A438261816182618269826970470246C0
:100670000020434B18684FF68073184040EA021080
:1006800008433F4B186070473E49C8617047F0B55A
:100690000A46002300240021002500F00046B6F1A0
:1006A000004F02D1364EF16901E0354E7168C0F35A
:1006B000034583B200F44016B6F5401F08D121F07F
:1006C00070612F4E766826F070662D4F7E6012E0C6
:1006D00000F48016B6F5801F06D1032606FA05F44D
:1006E000A14341F0706106E0460D360103FA06F6BB
:1006F000B14341F0706122B1460D360103FA06F6AE
:10070000314300F00046B6F1004F02D11C4EF161BA
:1007100001E01B4E7160F0BD30B500228B071C0F4D
:100720000F2303FA04F2164B08338C1053F82430CD
:100730009343134C08348D1044F8253023468C1015
:1007400053F824308C07240F00FA04F423430C4C94
:1007500008348D1044F8253030BD0A49DC3108607A
:100760007047000000080140000C014000100140EB
:100770000014014000180140001C0140002001400D
:100780000000014000002042DF48006840F0010006
:10079000DD49086008464068DC490840DA4948609D
:1007A00008460068DA490840D749086008460068EA
:1007B00020F4802008600846406820F4FE0048606D
:1007C0004FF41F0088607047CF49096821F48031D9
:1007D000CD4A11601146096821F480211160B0F5FD
:1007E000803F03D0B0F5802F0ED106E0C6490968DE
:1007F00041F48031C44A116007E0C349096841F4FB
:10080000A021C14A116000E000BF00BF704710B5D1
:1008100001460022002300204A11012A02D1BA4CCD
:10082000236806E0022A02D1B74C236A01E0B64CE5
:10083000636A01F01F02012494401C400CB10120A6
:1008400000E0002010BD38B50020009000240025F5
:1008500000BF3120FFF7DBFF05460098401C0090E9
:100860000098B0F5A06F01D0002DF2D03120FFF735
:10087000CEFF08B1012400E00024204638BD014627
:100880000020A14A106820F0F80040EAC100106082
:100890007047A04908607047024600209A4B58688C
:1008A00020F47C1042EA01031843974B58607047CC
:1008B00098490866704701460020934A506820F026
:1008C00003000843506070478F48406800F00C00F8
:1008D0007047014600208C4A506820F0F000084321
:1008E0005060704701460020874A506820F4E0605D
:1008F00008435060704701460020834A506820F446
:10090000605040EAC1005060704729B17E4A527A77
:1009100002437D4B5A7204E07B4A527A82437A4BFF
:100920005A7270477B49D8310860704701460020F1
:10093000754A506820F440400843506070470021D9
:10094000714A20321170704A82F82010012802D0BA
:1009500004280AD104E001216B4A2032117005E01D
:100960000521694A2032117000E000BF00BF7047C6
:100970006949086070476449096A0143624A116223
:100980007047654944390860704730B5002100223E
:10099000002400235C4D6D6805F00C0121B1042991
:1009A00005D0082923D105E05C4D056022E05B4DB0
:1009B00005601FE0544D6D6805F47012524D6D686E
:1009C00005F48034022505EB92421CB9544D554381
:1009D00005600BE04C4D6D6805F400351DB1504DC0
:1009E0005543056002E04D4D5543056002E04B4D17
:1009F000056000BF00BF444D6D6805F0F0010909B6
:100A0000484D6B5C0568DD4045603F4D6D6805F401
:100A1000E061090A434D6B5C4568DD4085603A4DF5
:100A20006D6805F46051C90A3E4D6B5C4568DD4058
:100A3000C560354D6D6805F44041890B3A4D6B5CDE
:100A4000C568B5FBF3F5056130BD29B12E4A526981
:100A500002432D4B5A6104E02B4A526982432A4BD0
:100A60005A61704729B1284A92690243264B9A611C
:100A700004E0254A92698243234B9A61704729B169
:100A8000214AD2690243204BDA6104E01E4AD2694E
:100A900082431D4BDA61704729B11B4AD268024379
:100AA000194BDA6004E0184AD2688243164BDA60C8
:100AB000704729B1144A12690243134B1A6104E0CA
:100AC000114A12698243104B1A617047124940392A
:100AD000086070470F49C86470470B49C871704778
:100AE0000948406A40F080700749486270470146F3
:100AF0000020054A92680A400AB1012000E0002067
:100B00007047014988727047001002400000FFF8EA
:100B1000FFFFF6FE000042428004424200127A00CB
:100B200000093D00140000202400002010B50446F8
:100B3000FE48844208D10121C014FFF7ADFF002117
:100B4000E014FFF7A9FFC4E0B4F1804F08D1012100
:100B50000846FFF7AEFF00210120FFF7AAFFB8E02B
:100B6000F348844208D101210220FFF7A2FF0021AF
:100B70000220FFF79EFFACE0EE48844208D101213D
:100B80000420FFF796FF00210420FFF792FFA0E06A
:100B9000E948844208D101210820FFF78AFF00219B
:100BA0000820FFF786FF94E0E448844208D1012141
:100BB0001020FFF77EFF00211020FFF77AFF88E06A
:100BC000DF48844208D101212020FFF772FF002175
:100BD0002020FFF76EFF7CE0DA48844208D1012133
:100BE0004014FFF759FF00216014FFF755FF70E034
:100BF000D548844209D10121C804FFF74DFF0021E7
:100C00004FF40020FFF748FF63E0D048844209D149
:100C100001210805FFF740FF00214FF48010FFF786
:100C20003BFF56E0CA48844209D101214805FFF73D
:100C300033FF00214FF40010FFF72EFF49E0C548B5
:100C4000844208D101214020FFF733FF00214020DA
:100C5000FFF72FFF3DE0C048844208D101218020EA
:100C6000FFF727FF00218020FFF723FF31E0BB487B
:100C7000844208D101218015FFF71BFF0021A01538
:100C8000FFF717FF25E0B648844209D10121080487
:100C9000FFF702FF00214FF48030FFF7FDFE18E060
:100CA000B048844209D101214804FFF7F5FE002134
:100CB0004FF40030FFF7F0FE0BE0AB48844208D160
:100CC00001218804FFF7E8FE00214FF48020FFF7A0
:100CD000E3FE10BD00220288944B98420ED0994B3F
:100CE00098420BD0B0F1804F08D0914B984205D07C
:100CF000904B984202D0904B984204D14FF68F739C
:100D00001A404B881A438D4B984207D08C4B98421F
:100D100004D04FF6FF431A40CB881A4302808B88D9
:100D200083850B880385814B98420BD0854B984275
:100D300008D08B4B984205D08A4B984202D08A4B00
:100D4000984201D10B7A038601238382704770B5E4
:100D5000002400220023058C4FF6FE7635400584E2
:100D6000028C8388048B4FF68F752C40B51E2C4067
:100D70000D882C43751E2A400D892A434D882A432D
:100D80006A4DA8420BD06F4DA84208D0744DA842BE
:100D900005D0744DA84202D0734DA84213D14FF62E
:100DA000F7752A404D892A434FF6FB752A408D88F6
:100DB0002A434FF6FF652B404FF6FF552B408D8998
:100DC0002B43CD892B4383800483CD888586028481
:100DD00070BD70B5002400220023058C4FF6EF761D
:100DE00035400584028C8388048B48F6FF752C40BF
:100DF0004FF6FF452C400D884FF6FF7606EA052595
:100E00002C434FF6DF752A400D8906EA05152A4363
:100E10004D8806EA05152A43444DA84202D0494DA3
:100E2000A8421DD14FF67F752A404D894FF6FF76B7
:100E300006EA05152A434FF6BF752A408D8806EA53
:100E400005152A434FF6FF352B404FF2FF752B4017
:100E50008D8906EA85052B43CD8906EA85052B4356
:100E600083800483CD880587028470BD70B500241B
:100E700000220023058C4FF6FF6635400584028C66
:100E80008388848B4FF68F752C404FF6FC752C4071
:100E90000D882C434FF6FF552A400D894FF6FF76FB
:100EA00006EA05252A434D8806EA05252A431F4DF3
:100EB000A84202D0234DA8421DD14FF2FF752A400F
:100EC0004D894FF6FF7606EA05252A434FF6FF3592
:100ED0002A408D8806EA05252A434EF6FF752B40E9
:100EE0004DF6FF752B408D8906EA05152B43CD89FC
:100EF00006EA05152B4383808483CD888587028489
:100F000070BD70B5002200230024058C4EF6FF76DC
:100F100035400584038C8488828B48F6FF752A400F
:100F20004FF6FF452A400D8820E00000002C0140CC
:100F30000004004000080040000C00400010004089
:100F40000014004000340140004C014000500140BA
:100F50000054014000180040001C004000200040E8
:100F60000040014000440140004801404FF6FF7638
:100F700006EA05252A434DF6FF752B400D8906EA42
:100F800005352B434D8806EA05352B43FA4DA8421B
:100F900002D0FA4DA84208D14BF6FF752C408D893E
:100FA0004FF6FF7606EA85152C4384808283CD8830
:100FB000A0F84050038470BD828B4FF2FF331A407B
:100FC0008283828B4FF6FF7303EA01231A438283E5
:100FD0007047F0B50C461546002200210026078C0C
:100FE0004EF6FF7C07EA0C070784828B018C4FF6D4
:100FF000FF7707EA043640F6FF473A404FF6FF779F
:1010000007EA05273A434FF6FF7707EA03373A43E3
:10101000D94FB8420ED0D94FB8420BD0B0F1804F63
:1010200008D0D74FB84205D0D64FB84202D0D64FDD
:10103000B84206D14DF6FF77394046F48057394320
:1010400005E047F6FF57394044F48057394382831F
:101050000184F0BD828B4FF6F3731A408283828B3A
:101060000A4382837047F0B50C46154600220021E2
:101070000026078C4FF6FF6C07EA0C070784828B6B
:10108000018C4FF6FF7707EA04264FF60C773A40BB
:101090004FF6FF7707EA03172F433A43B64FB8429C
:1010A0000ED0B64FB8420BD0B0F1804F08D0B44F3D
:1010B000B84205D0B34FB84202D0B34FB84206D1C0
:1010C0004FF6FF57394046F48077394305E04FF239
:1010D000FF57394044F48077394382830184F0BD5F
:1010E000028B4FF2FF331A400283028B4FF6FF73DD
:1010F00003EA01231A4302837047F0B50C461546F4
:10110000002200210026078C4FF6EF7C07EA0C072F
:101110000784028B018C4FF6FF7707EA041640F62E
:10112000FF473A404FF6FF7707EA03373A434FF657
:10113000FF7707EA05273A438F4FB8420ED08F4F0B
:10114000B8420BD0B0F1804F08D08D4FB84205D0D7
:101150008C4FB84202D08C4FB84206D14FF6DF77A1
:10116000394046F01007394305E04FF65F773940C4
:1011700044F01007394302830184F0BD028B4FF61F
:10118000F3731A400283028B0A4302837047F0B55F
:101190000C46154600220021068C4FF6FE773E4095
:1011A0000684028B018C4FF60C7632407E1C06EAD8
:1011B00003162E433243704EB0420ED06F4EB042F3
:1011C0000BD0B0F1804F08D06D4EB04205D06D4EBF
:1011D000B04202D06C4EB04206D14FF6FD7631409F
:1011E00044F00106314305E04FF6F576314044F016
:1011F0000106314302830184F0BD70B505460C46FB
:101200005D4885420ED05D4885420BD0B5F1804FD8
:1012100008D05B48854205D05A48854202D05A48DA
:10122000854200D100E000BF208850B92389A28800
:1012300061882846FFF7ABFFE1882846FFF79EFF4D
:1012400025E0208804280AD12389A28861882846BD
:10125000FFF753FFE1882846FFF742FF17E0208899
:1012600008280AD12389A28861882846FFF7FBFE57
:10127000E1882846FFF7EEFE09E02389A28861880D
:101280002846FFF7A6FEE1882846FFF795FE70BDC9
:101290002DE9F04105460C4600260127608808B973
:1012A000022600E00026A088012801D1022700E0E4
:1012B00001272088A0B92389A28861882846FFF7E2
:1012C00066FFE1882846FFF759FF23893A463146F1
:1012D0002846FFF712FFE1882846FFF701FF13E0D9
:1012E0002389A28861882846FFF707FFE1882846FE
:1012F000FFF7F6FE23893A4631462846FFF747FFB7
:10130000E1882846FFF73AFFBDE8F0810A884B885C
:101310001A438B881A43CB881A430B891A434B898B
:101320001A438B891A43A0F8442070474FF6FF7187
:10133000818000210180C1804180017270470021BD
:10134000018041808180C180018141818181C18191
:101350007047002101804180012181800021C180EE
:10136000018170470021018041808180C18001811D
:101370004181818170470000002C01400034014010
:101380000004004000080040000C004021B1028829
:1013900042F00102028004E002884FF6FE731A4018
:1013A0000280704731B1B0F8442042F40042A0F806
:1013B000442005E0B0F84420C2F30E02A0F8442017
:1013C00070471AB183890B43838102E083898B4381
:1013D000838170478182704741EA0203A0F8483058
:1013E00070471AB183890B43838102E083898B4361
:1013F0008381704701894FF6F8721140018170476F
:101400000A46002101894FF68F731940114301816B
:10141000704730B504460D4629462046FFF7F0FFD9
:10142000208940F00700208130BD2DE9F0410446BD
:101430000D4616461F46602D06D13B460122314619
:101440002046FFF75AFE05E03B4601223146204682
:10145000FFF79DFE29462046FFF7D2FF208940F086
:1014600007002081BDE8F08130B50C4600210189DC
:10147000C9B24FF6FF7505EA0325154325432943F5
:10148000018130BD2DE9F04105460E4617469846CC
:10149000002443463A4631462846FFF7E5FF2C89AB
:1014A0004FF6F870044044F007044FF68F70044084
:1014B00044F070042C81BDE8F081F0B504460D467F
:1014C00016461F463B46324629462046FFF7CCFFCC
:1014D000208940F480402081F0BD018582827047E0
:1014E0000A46002101884FF68F731940114301808D
:1014F0007047F0B50C4615461E4600210022002319
:101500000189028B038C4FF6F877394021434FF65F
:10151000FC473A4040F201173A434FF6DD773B4033
:101520004FF6FF7707EA06172F433B4301810283FB
:101530000384F0BD0A460021018B4FF68F731940DA
:101540001143018370470A460021018B48F6FF735F
:1015500019404FF6FF7303EA0223194301837047D2
:101560000A460021818B4FF68F7319401143818306
:1015700070470A460021818B48F6FF7319404FF6E9
:10158000FF7303EA022319438183704721B1028864
:1015900042F08002028004E002884FF67F731A4016
:1015A0000280704721B1828842F00402828004E008
:1015B00082884FF6FB731A408280704721B182887F
:1015C00042F00802828004E082884FF6F7731A40E6
:1015D0008280704721B1828842F00102828004E05B
:1015E00082884FF6FE731A40828070470A460021B7
:1015F000018B4FF6F77319401143018370470A4678
:101600000021018B4FF2FF7319404FF6FF7303EA7D
:1016100002231943018370470A460021818B4FF64C
:10162000F77319401143818370470A460021818B6B
:101630004FF2FF7319404FF6FF7303EA0223194379
:10164000818370470A460021018B4FF6FB731940D6
:101650001143018370470A460021018B4FF6FF3387
:1016600019404FF6FF7303EA0223194301837047C1
:101670000A460021818B4FF6FB7319401143818389
:1016800070470A460021818B4FF6FF3319404FF611
:10169000FF7303EA02231943818370470A4600213E
:1016A000018B4FF67F7319401143018370470A463F
:1016B0000021018BC1F30E014FF6FF7303EA0223F1
:1016C0001943018370470A460021818B4FF67F73CF
:1016D00019401143818370470A460021818BC1F371
:1016E0000E014FF6FF7303EA02231943818370470B
:1016F0000A460021018C4FF6FD7319401143018405
:1017000070470A460021018C4FF6F77319401143C8
:10171000018470470A460021018C4FF6DF7319409F
:101720004FF6FF7303EA02131943018470470A4618
:101730000021018C4FF67F7319404FF6FF7303EAC7
:1017400002131943018470470A460021018C4FF6A9
:10175000FF5319404FF6FF7303EA02231943018434
:1017600070470A460021018C4FF2FF7319404FF673
:10177000FF7303EA02231943018470470A460021DC
:10178000018C4DF6FF7319404FF6FF7303EA0233E5
:1017900019430184704730B5002301248C40A3B263
:1017A000048C9C430484048C02FA01F5ADB22C43F2
:1017B000048430BD30B5002304248C40A3B2048CD3
:1017C0009C430484048C02FA01F5ADB22C430484DA
:1017D00030BD70B50346002000241846183001259E
:1017E0008D40ACB21D8CA5431D8409B1082909D1D7
:1017F00000EB6100056825F070050560056815437C
:1018000005600EE00D1FC5F34E052844056825F45C
:10181000E045056005684FF6FF7606EA0226354387
:10182000056070BD21B1028842F00202028004E02E
:1018300002884FF6FD731A400280704721B102887A
:1018400042F00402028004E002884FF6FB731A4063
:101850000280704721B1828842F08002828004E0D9
:1018600082884FF67F731A408280704702884FF655
:10187000F7731A40028002880A4302807047828808
:101880004FF68F731A40828082880A4382807047A5
:1018900002894FF6F8731A40028102890A430281D5
:1018A000704702894FF67F731A40028102890A430A
:1018B00002817047818470478185704781867047B7
:1018C0000187704781877047A0F8401070470288F1
:1018D0004FF6FF431A40028002880A430280704795
:1018E0000146888E70470146088F70470146888FF1
:1018F00070470146B1F8400070470146888C704738
:101900000146088D704702460020138A0B400BB138
:10191000012000E000207047CA430282704730B5C2
:101920000246002000230024158A05EA0103958958
:1019300005EA010413B10CB1012000E0002030BD24
:10194000CA4302827047000010B50446F74884423B
:1019500009D101218803FFF79FF800214FF480404F
:10196000FFF79AF832E0F248844209D10121480495
:10197000FFF79FF800214FF40030FFF79AF825E0B9
:10198000EC48844209D101218804FFF792F8002134
:101990004FF48020FFF78DF818E0E748844209D122
:1019A0000121C804FFF785F800214FF40020FFF75C
:1019B00080F80BE0E148844208D101210805FFF7D7
:1019C00078F800214FF48010FFF773F810BD2DE96F
:1019D000F04786B005460E460024A24600BFA14649
:1019E0000027B08900B100BF2F462C8A4CF6FF704B
:1019F0000440F08804432C82AC894EF6F310044076
:101A0000B08831890843718908430443AC81AC8AAA
:101A10004FF6FF400440B0890443AC8201A8FEF7B2
:101A2000B4FFC248874202D1DDF810A001E0DDF822
:101A30000CA0A88900F4004040B10AEBCA0000EBFA
:101A40000A1031684900B0FBF1F807E00AEBCA0060
:101A500000EB0A1031688900B0FBF1F86420B8FB94
:101A6000F0F004012009642101FB1089A88900F429
:101A7000004040B1322000EBC900B0FBF1F000F0B3
:101A80000700044308E0322000EB09106421B0FB9A
:101A9000F1F000F00F0004432C8106B0BDE8F087A0
:101AA0004FF41651016000218180C18001810C2119
:101AB000418100218181704710B502460020108AC3
:101AC0004FF2FF0318400B884C8823438C88234334
:101AD000CC8823431843108210BD0021018041802F
:101AE0008180C180704721B1828942F40052828195
:101AF00004E082894DF6FF731A4082817047F0B589
:101B00000346002400260025002040F66A17B9424B
:101B100000D100BF1846C1F3421401F01F0601278F
:101B200007FA06F5012C01D10C3004E0022C01D19A
:101B3000103000E014301AB107682F43076002E04C
:101B40000768AF430760F0BD1AB1838A0B438382F5
:101B500002E0838A8B4383827047028A4FF6F073D8
:101B60001A400282028A0A430282704782894FF237
:101B7000FF731A40828182890A438281704721B1B2
:101B8000828942F00202828104E082894FF6FD736D
:101B90001A4082817047028A4FF6DF731A40028230
:101BA000028A0A430282704721B1028A42F48042CB
:101BB000028204E0028A4BF6FF731A4002827047E9
:101BC00002460020B1F5007F00D100BF13880B4012
:101BD0000BB1012000E00020704730B504460D46EF
:101BE000C5F30800A08000BF80212046FFF7E8FF72
:101BF0000028F9D030BD01468888C0F3080070473E
:101C0000818941F0010181817047028BD2B2028348
:101C1000028B42EA012202837047028B02F47F4268
:101C20000283028B0A430283704721B1828A42F009
:101C30002002828204E0828A4FF6DF731A40828299
:101C4000704721B1828A42F01002828204E0828AC7
:101C50004FF6EF731A408282704721B1828A42F0B8
:101C60000802828204E0828A4FF6F7731A40828269
:101C7000704721B1828942F40042828103E0828967
:101C8000C2F30E028281704721B1828A42F400625F
:101C9000828204E0828A4FF2FF731A408282704788
:101CA000828A4FF6FB731A408282828A0A438282BA
:101CB000704721B1828A42F00202828204E0828A65
:101CC0004FF6FD731A408282704701F40072B2F53C
:101CD000007F00D100BFCA430280704770B5024642
:101CE000002400230025002040F66A16B14200D1EE
:101CF00000BFC1F3421501F01F03012606FA03F3EA
:101D0000012D02D19689334006E0022D02D1168AB8
:101D1000334001E0968A33400C12012606FA04F49F
:101D20001688344063B15CB101200AE000380140FC
:101D30000044004000480040004C0040005000407B
:101D4000002070BD10B50022002340F66A14A142A5
:101D500000D100BF0A1201249440A3B2DC430480E6
:101D600010BD00000CB50020019000906C48006888
:101D700040F480306A49086000BF6948006800F498
:101D8000003000900198401C0190009818B901980B
:101D9000B0F5A06FF1D16248006800F4003010B1D6
:101DA0000120009001E0002000900098012843D11C
:101DB0005C48006840F010005A4908600846006816
:101DC00020F0030008600846006840F00200086048
:101DD0005348406852494860084640684860084691
:101DE000406840F4806048600846406820F47C10F9
:101DF00048600846406840F4E810486008460068BB
:101E000040F08070086000BF4548006800F0007036
:101E10000028F9D04248406820F00300404948605B
:101E20000846406840F00200486000BF3C484068F7
:101E300000F00C000828F9D10CBD10B5FFF792FF97
:101E400010BD10B53648006840F001003449086004
:101E500008464068344908403149486008460068EF
:101E6000324908402E4908600846006820F4802066
:101E700008600846406820F4FE0048604FF41F00E8
:101E80008860FFF7DAFF4FF000602949086010BD55
:101E900010B5002100200022214B5B6803F00C01EB
:101EA00021B1042906D0082928D107E0214B224C72
:101EB000236027E01F4B204C236023E0184B5B6816
:101EC00003F47010164B5B6803F48032022303EBBB
:101ED000904022B9194B4343174C23600DE0104B3F
:101EE0005B6803F4003323B1144B4343124C23606B
:101EF00003E0104B4343104C236003E00D4B0E4CAA
:101F0000236000BF00BF064B5B68C3F303130C4C98
:101F1000E15C094B1B68CB40074C236010BD0000FF
:101F200000100240002002400000FFF8FFFFF6FE14
:101F300008ED00E000127A002800002000093D00B2
:101F40002C000020014642F228324A434FF0E023A1
:101F50005A6101221A6100229A6100BF4FF0E0220B
:101F6000106900F001021AB100F48032002AF5D0A5
:101F700000224FF0E0231A619A617047F7494A68DE
:101F8000083141F8220008394968491CF34A516078
:101F9000B1F5487F01D300215160F0494968EF4A0B
:101FA0001268914209D1ED490968491CEB4A116058
:101FB000B1F5487F01D300211160704710B5044688
:101FC000E7484168083040F82140E5494A68014641
:101FD00051F82200E34900F0C3FF0AD0E049496804
:101FE000491EDF4A083252F82100DF4900F0B8FFED
:101FF00015D1DB494968C91ED94A083252F8210077
:1020000000F021FFD9490870D5494968891ED44A92
:10201000083252F8210000F016FFD4494870D04829
:102020004068401CCE494860B0F5487F01D300208D
:102030004860CB484068CA490968884209D1C84805
:102040000068401CC6490860B0F5487F01D30020F5
:10205000086010BD0146C1480068C04A52689042FD
:1020600001D100207047BD480268083050F82200B6
:102070000860BA480068401CB84A1060B0F5487F54
:1020800001D3002010600120ECE70146B44800684D
:10209000B34A5268904201D100207047B0480268AC
:1020A000083050F822000860AD480068401CAC4A77
:1020B0001060B0F5487F01D3002010600120ECE7EC
:1020C00000B587B0012144F20400FEF7CBFC4FF4C9
:1020D0000070ADF8180018208DF81B0003208DF853
:1020E0001A0006A9A248FEF701FA4FF48060ADF885
:1020F000180004208DF81B0003208DF81A0006A993
:102100009B48FEF7F3F94FF4964002900020ADF89B
:102110000C00ADF80E00ADF81000ADF814000C2066
:10212000ADF8120002A99348FFF751FC25208DF865
:10213000040003208DF8050002208DF80600012020
:102140008DF8070001A8FEF742F8012240F2255160
:102150008848FFF7D4FC01218648FFF7C4FC07B08C
:1021600000BD70B504460D4600BF208800F0400059
:102170000028FAD029462046FFF72FFD70BD30B564
:1021800002460B464FF6FF7010E012F8014B60401C
:10219000002109E000F0010424B14AF2010484EABC
:1021A000600000E04010491C0829F3DB1C1EA3F16D
:1021B0000105EBB2E9D130BD7CB50B208DF80000F4
:1021C00003208DF8010002208DF802006A496B4857
:1021D000006800F019FC064600F01CFE0546C0171A
:1021E00005EB1060000A8DF803006349634800683E
:1021F00000F00AFC064600F00DFE0546C01705EB90
:1022000010600012A5EB0020C0B28DF8040005217B
:102210006846FFF7B4FFC0B28DF805000521684697
:10222000FFF7ADFF000A8DF80600002405E01DF859
:1022300004105048FFF795FF641C072CF7DB7CBDAA
:1022400070B540F225514B48FFF748FD002851D0AA
:102250004848FFF7D0FCC4B2494801780078401CD8
:10226000474A10704748445410460078052834DD2A
:1022700010460078801E4349085C10280AD1104699
:102280000078401E085C182804D1FFF795FF002055
:102290003B4908703A480078401F3A49085C0628D4
:1022A0001BD137480078001F085C102815D134482E
:1022B0000078C01E085C07280FD131480078801EC6
:1022C000085C314908702E480078401E2D49085C92
:1022D0002D49487000202A490870204600F095FDDD
:1022E0000546FFF76BFE26480078282802DD00200F
:1022F0002349087008211F48FFF762FC012806D116
:102300001C48FFF778FC08211A48FFF7DEFC40F272
:1023100025511848FFF7D9FC70BD2DE9F04107465B
:102320000D461646002405E0295D3846FFF719FFE3
:10233000601CC4B2B442F7DBBDE8F08138B5684632
:10234000FFF788FE012807D1009800F07CFD84B2D9
:1023500021460848FFF705FF38BD0000A000002017
:10236000280D002000007F4300007E433E00002037
:1023700000080140003801400000C8425800002019
:102380003C000020640000204000002000B587B021
:1023900001214804FEF773FB01210420FEF762FBD4
:1023A0000420ADF8180018208DF81B0003208DF8CC
:1023B0001A0006A94448FEF799F80820ADF818005D
:1023C00004208DF81B0003208DF81A0006A93E4852
:1023D000FEF78CF84FF4964002900020ADF80C0008
:1023E000ADF80E00ADF81000ADF814000C20ADF8FB
:1023F000120002A93548FFF7EAFA26208DF80400FA
:1024000003208DF8050001208DF806008DF80700E7
:1024100001A8FDF7DCFE012240F225512B48FFF711
:102420006EFB01212948FFF75EFB07B000BD70B5C8
:1024300040F225512548FFF751FC90B12348FFF7A2
:10244000DAFBC4B22248234909784454204600F0FC
:10245000DCFC0546FFF792FD40F225511B48FFF7D3
:1024600034FC08211948FFF7ABFB012806D11748B7
:10247000FFF7C1FB08211548FFF727FC40F2255163
:102480001248FFF722FC70BD38B56846FFF7FDFD26
:10249000012807D1009800F0D6FC84B221460B48F1
:1024A000FFF75FFE38BD70B504460D46E1B20A483D
:1024B000FFF793FB00BF40210748FFF781FB00288F
:1024C000F9D0204670BD00000008014000440040E3
:1024D000820000203D0000200038014000B585B09A
:1024E00001210420FEF7BEFA01214807FEF7C7FAD2
:1024F0003020ADF8100000208DF8130003208DF877
:10250000120004A96648FDF7F1FF30216448FEF788
:102510009AF8002001900090022003900020029081
:102520006946FDF7C8FE802001900420009002203B
:1025300003904FF42060029069461020FDF7BBFE27
:1025400000210846FDF735FF01210020FDF7D0FEF0
:1025500001211020FDF7CCFE4FF480710020FDF723
:1025600035FF05B000BD0EB501211020FEF787FA3A
:102570000920ADF804004820ADF800000020ADF8B7
:102580000600ADF802008DF8080069464548FEF7E0
:10259000A1FB20214348FFF772F901214148FEF7D2
:1025A000F5FE0EBD2DE9F0470446204600F02DFC57
:1025B00081463D49484600F059FA81464FF08B412B
:1025C000484600F021FA824600F06AFC07464FF0C8
:1025D0006632364B00F0A1FB054600F0A5FC8146B3
:1025E000484600F030FC85B229460020FDF7E1FEA8
:1025F000BDE8F0872DE9FF5F06460F4692469B46F1
:102600002B492C48006800F0FFF900902A48016827
:10261000009800F0F6F9019000F042FC80468946EF
:1026200052465B464046494600F005FBCDE90001B5
:10263000DDE9022300F058FACDE9020142464B469B
:102640003046394600F0F7FACDE90001DDE9022312
:1026500000F04AFA04460D460022184B204629464F
:1026600000F042FA04460D460022154B204629464A
:1026700000F042FC02D80024114D08E0002213466D
:102680002046294600F020FC01D80024254620469B
:10269000294600F0ECFB80B204B0BDE8F09F0000DA
:1026A000000801400010004000007A4466660A40BD
:1026B0000000C842580000200C00002000C89940CB
:1026C00000C8A9401FB501210220FEF7D8F9092052
:1026D000ADF8080041F61F40ADF804000020ADF849
:1026E0000A00ADF8060001A96448FEF7F3FA0122DA
:1026F00041216248FEF765FE1D208DF80000002094
:102700008DF8010003208DF8020001208DF80300F0
:102710006846FDF75CFD01215848FEF737FE1FBDF6
:1027200070B501215548FFF7FAF800286ED0012155
:102730005248FFF705F9524800685249086000F016
:10274000FAF851490988441A204600F055FB4F49D0
:10275000086000214D48006800F002FC0CD84C498C
:102760000988080100F048FB0446484801682046F3
:1027700000F0F2F84549086045490988880000F0F2
:102780003BFB044621464148006800F06FF93C4994
:1027900008603C4801683A48006800F02FF9064696
:1027A00000F038FB041E01DB214600E061420846D0
:1027B00000F022FB05464FF07C5100F0DBFB4DD2D0
:1027C0004FF07E512E48006800F0C6F805462D48AF
:1027D0000168284600F012F904464FF07C5100F0E1
:1027E000BFFB14D24FF07E512548006800F0B4F8CA
:1027F000054624480168284600F000F904462548AB
:102800000168204600F000F92349086034E04FF0E9
:102810007E511B48006800F0F1F805461948016830
:10282000284600F0EBF804464FF03F4100F0A2FBD1
:1028300022D24FF07E511248006800F0DFF80546C2
:1028400010480168284600F0D9F80446114801688C
:10285000204600F0D9F8104908600DE009480168E9
:102860000748006800F0CAF804460A480168204694
:1028700000F0CAF80849086070BD0000000400407C
:1028800058000020540000204C0000205000002080
:10289000440000205C0000204800002000B587B004
:1028A00001210420FEF7EBF801210820FEF7DAF8F9
:1028B00006A8FDF7A6FEC020ADF8180048208DF848
:1028C0001B0003208DF81A0006A91F48FDF70EFE15
:1028D0001E48FEF72BF903A8FEF728FD1C480088C8
:1028E0004FF6FF7101EA8000ADF810000020ADF84E
:1028F0000C00ADF81200ADF80E0003A91348FEF766
:10290000E9F90A231A4603211048FEF7F2FD68464A
:10291000FEF71FFD0620ADF8080069460B48FEF7DC
:102920006CFC002009492431088001210748FEF78A
:102930002DFD07B000BD05482430008805490880FA
:102940000846008870470000000C01400008004065
:102950006000002062000020F0B480EA0102D40F81
:102960004200B2EB410F02D20246084611464A002D
:1029700042D0C30DDDB2C1F3C752AD1A202D35DAF6
:10298000C1F3160141F4000204B15242C5F1200620
:1029900002FA06F12A411044B3EBD05F23D0C4B150
:1029A000012DA0EBC35009DCF0BC4FF0004202EA5D
:1029B000C352DBB200F5000000F020BB400000F184
:1029C000807000EBC350A0F1807040EAD1704900E4
:1029D00009E0490841EAC071A0EBC35000F50000CE
:1029E000400800EBC350F0BC00F0FFBA6142012286
:1029F00002EB4101001BF6E7F0BC704781F000419B
:102A0000AAE780F00040A7E780EA010210B502F0D3
:102A10000043400022D04A001FD0010E01EB12619A
:102A2000C0F35600C2F3560240F4000042F4000224
:102A3000A0FB022000047F39140400D0401C50EA9F
:102A4000124001D44000491EC2B20C0604EBD01063
:102A5000401C4008802A02D003E0002010BD20F076
:102A60000100002900DA0020184310BD30B480EACC
:102A7000010202F0004530F0004221F0004013D086
:102A800090B1C30DD40DC2F31601C0F31600E41AC1
:102A900041F4000140F400027D34914201D3641CF2
:102AA00000E04900002C02DA30BC002070474FF4EF
:102AB00000000023914201D3891A034340084FEAE2
:102AC0004101F7D151B1914202D14FF0004105E0EF
:102AD00002D24FF0010101E06FF0010103EBC4509D
:102AE000284430BC00F081BA2DE9FE4F804681EACF
:102AF0000300C00F0C46009021F0004123F0004578
:102B0000B8EB0200A94105D24046214690461C463A
:102B10000B46024623F00040104347D0270DC7F371
:102B20000A00C3F30A510290401A019040286BDA60
:102B3000C3F3130040F4801B0098924620B1002399
:102B4000D2EB030A63EB0B0B01985946C0F140022C
:102B5000504600F019FA06460D4650465946019A6D
:102B600000F031FA10EB08006141002487EA1152AD
:102B700084EAE7731A4340D0009A62B3019A012AAB
:102B80004FEA075215DC001B61EB02014FF00042D7
:102B900002EA0752CDE90042001C41F5801132469D
:102BA0002B4600F068FA03B0BDE8F08F404621469E
:102BB000F9E7001B61EB0201001C41F580130018CE
:102BC0005B412018A2F5001747EB030140EAD570DE
:102BD000B6196D4111E06D084FEA360645EAC07539
:102BE0004FEA0752001B61EB0201001C41F5801106
:102BF00049084FEA30000019514132462B4603B0D4
:102C0000BDE8F04F00F028BA0098012240000023F0
:102C1000D0EB020263EBE073009821464FEAE074C8
:102C2000B8EB000061EB0401E9E783F000435BE7E8
:102C300081F0004158E72DE9FE4F81EA030404F0DA
:102C4000004421F0004100944FF0000B23F00043BA
:102C500050EA01045ED052EA03045BD0C3F30A5485
:102C6000C1F30A552C44A4F2F3340194A0FB02549E
:102C7000C1F3130141F48011C3F3130343F4801330
:102C800001FB024400FB034E840A970A44EA815484
:102C900047EA8357A4FB076802958D0A05FB078561
:102CA0004FEA932C04FB0C542705029D4FEA06586B
:102CB00047EA1637B5EB08056EEB070C870E920E48
:102CC00047EA811742EA8312A7FB0201B6EB0B0128
:102CD00064EB00042B0D43EA0C335E1844EB1C50EC
:102CE000DA465146E7FB0201C5F313044FEA0B3302
:102CF00043EA14534FEA0432019C43EA0603A4F169
:102D00000C040294009CCDE900B400F0B4F903B0C7
:102D1000BDE8F08F00200146F9E72DE9F04D81EA8A
:102D2000030404F0004B21F0004514464FF0000A64
:102D300023F0004150EA050220D054EA01021DD0E0
:102D4000C5F30A570246C5F31303C1F31300C1F3D9
:102D50000A5640F4801543F48013A7EB0608101BB5
:102D6000D64608F2FD3873EB050002D308F10108DE
:102D700001E092185B41B8F1000F03DA0020014630
:102D8000BDE8F08D00204FF48011064684460EE029
:102D9000171B73EB050705D3121B63EB05030643F3
:102DA0004CEA010C49084FEA300092185B4150EAA6
:102DB0000107EDD152EA030012D082EA040083EA4F
:102DC0000501084305D0101BAB4106D201220023A8
:102DD00006E000224FF0004302E06FF001025310C2
:102DE0001AEB06004CEB085110EB0A0041EB0B010B
:102DF000BDE8F04D00F030B9C10F80EAE070084442
:102E0000CA079623002100F0F9B896230022114644
:102E100000F0F4B800F0004220F00040C10DC0F313
:102E2000160040F400007F2901DA0020704796293F
:102E300003DCC1F19601C84001E096398840002AC0
:102E4000F4D04042704720F00040C10DC0F316009E
:102E500040F400007F2901DA00207047962903DC46
:102E6000C1F19601C8407047963988407047C1F358
:102E70000A5210B5C1F3130140F2FF3341F480113F
:102E80009A4201DA002010BD40F233439A42A2F286
:102E9000334203DC524200F086F810BD904010BD72
:102EA00000F0004230F000400AD0C10D01F5607121
:102EB000C0F3160042EA0151C208400711437047AF
:102EC000002001467047000030B5041E71F1000477
:102ED00004DB4FF00044404264EB0101141E73F127
:102EE000000405DB1C464FF00043524263EB040331
:102EF0008B4208BF824230BD30B5041E71F1000420
:102F000004DB4FF00044404264EB0101141E73F1F6
:102F1000000405DB1C464FF00043524263EB040300
:102F2000994208BF904230BD01F0004330B421F017
:102F3000004150EA010206D00A0DA2F56072C1F309
:102F40001301002A02DC30BC00207047440F44EA21
:102F5000C104C100E01830BC00EBC25000F045B81D
:102F6000002801DBC0F10040002901DBC1F1004174
:102F700081427047002801DBC0F10040002901DBDD
:102F8000C1F1004188427047202A04DB203A00FA50
:102F900002F1002070479140C2F1200320FA03F3B0
:102FA000194390407047202A04DB203A21FA02F0AE
:102FB0000021704721FA02F3D040C2F12002914073
:102FC000084319467047202A06DBCB17203A41FAFE
:102FD00002F043EAE07306E041FA02F3D040C2F1A6
:102FE000200291400843194670470029A8BF704746
:102FF000401C490008BF20F00100704710B4B0FA2F
:1030000080FC00FA0CF050EA010404BF10BC7047C9
:1030100049B1CCF1200421FA04F411FA0CF118BFE3
:10302000012121430843A3EB0C01CB1D4FEA0061B2
:103030004FEA102042BF002010BC704700EBC35085
:1030400010440029A4BF10BC7047401C490008BFB1
:1030500020F0010010BC704710B5141E73F100047D
:1030600008DA401C41F1000192185B411A4301D17A
:1030700020F0010010BD2DE9F04D92469B4611B1A4
:10308000B1FA81F202E0B0FA80F220329046FFF706
:103090007BFF04460F4640EA0A0041EA0B01534613
:1030A0005A46084313D0114653EA010019D0C8F11B
:1030B00040025046FFF777FF05460E4650465946F8
:1030C0004246FFF761FF084305D0012004E0204697
:1030D0003946BDE8F08D0020054346EAE0762C43F2
:1030E00037430A986305E40AA0EB08000022FD0AB2
:1030F00044EA47540A3002D500200146E9E70105B9
:1031000010196941DDE9084500196941BDE8F04D34
:10311000A2E70000064C074D06E0E06840F001031E
:1031200094E8070098471034AC42F6D3FCF7E2FF6E
:10313000583100087831000802E008C8121F08C1A1
:10314000002AFAD170477047002001E001C1121F28
:10315000002AFBD1704700007831000800000020F1
:103160006400000038310008DC31000864000020F1
:103170004C1D000048310008000000000000000065
:10318000000000000000000000000000000000003F
:1031900001020304010203040607080902040608E9
:1031A00000A24A0400000000000000000102030425
:1031B000060708090000000000000000710200007E
:1031C00000000000000000000000000000000000FF
:0C31D0000000000000007A44C409000068
:04000005080000ED02
:00000001FF
